:020000040000FA
:100000000C9462000C948A000C948A000C948A0070
:100010000C948A000C948A000C948A000C948A0038
:100020000C948A000C948A000C948A000C948A0028
:100030000C948A000C948A000C948A000C948A0018
:100040000C9441060C948A000C94B1060C948B0617
:100050000C948A000C948A000C948A000C948A00F8
:100060000C94E3060C948A00000000002300260094
:10007000290000000000240027002A0000000000E2
:10008000250028002B0004040404040404040202D4
:100090000202020203030303030301020408102007
:1000A0004080010204081020010204081020000012
:1000B0000008000201000003040700000000000027
:1000C0000000470811241FBECFEFD8E0DEBFCDBF30
:1000D00011E0A0E0B1E0EEEEF6E102C005900D9275
:1000E000A03CB107D9F723E0A0ECB1E001C01D921C
:1000F000AC34B207E1F710E0C2E6D0E004C02197CB
:10010000FE010E946F0BC136D107C9F70E948F080C
:100110000C94750B0C94000090E0FC01E255FF4F2D
:100120002491FC01E656FF4F3491FC01EA57FF4F42
:10013000E491EE23C9F0222339F0233001F1A8F431
:10014000213019F1223029F1F0E0EE0FFF1FE458C1
:10015000FF4FA591B4918FB7F894EC91611126C02F
:1001600030953E233C938FBF08952730A9F0283067
:10017000C9F0243049F7809180008F7D03C08091C1
:1001800080008F7780938000DFCF84B58F7784BD28
:10019000DBCF84B58F7DFBCF8091B0008F778093CC
:1001A000B000D2CF8091B0008F7DF9CF3E2BDACF57
:1001B000CF93DF9390E0FC01E656FF4F24918A57DE
:1001C0009F4FFC0184918823D1F090E0880F991F04
:1001D000FC01EE58FF4FA591B491FC01E458FF4F8C
:1001E000C591D49161110EC09FB7F8948C91E22F04
:1001F000E0958E238C932881E223E8839FBFDF91D3
:10020000CF9108958FB7F894EC91E22BEC938FBFC8
:10021000F6CF3FB7F8948091930290919402A09109
:100220009502B091960226B5A89B05C02F3F19F004
:100230000196A11DB11D3FBFBA2FA92F982F882766
:10024000BC01CD01620F711D811D911D42E0660F41
:10025000771F881F991F4A95D1F708958F929F9213
:10026000AF92BF92CF92DF92EF92FF926B017C012F
:100270000E9409014B015C01C114D104E104F104A5
:10028000B9F00E940901681979098A099B09683E39
:1002900073408105910580F321E0C21AD108E1087D
:1002A000F10888EE880E83E0981EA11CB11CE4CFF3
:1002B000FF90EF90DF90CF90BF90AF909F908F9086
:1002C000089508950895AF92BF92CF92DF92EF9272
:1002D000FF920F931F93CF93DF936C017B018B01F0
:1002E000040F151FEB015E01AE18BF08C017D10740
:1002F00059F06991D601ED91FC910190F081E02DCA
:10030000C6010995892B79F7C501DF91CF911F911E
:100310000F91FF90EF90DF90CF90BF90AF90089536
:10032000FC01538D448D252F30E0842F90E0821BFB
:10033000930B541710F0CF96089501970895FC0180
:10034000918D828D981761F0A28DAE0FBF2FB11DD8
:100350005D968C91928D9F5F9F73928F90E0089530
:100360008FEF9FEF0895FC01918D828D981731F0EA
:10037000828DE80FF11D858D90E008958FEF9FEF3E
:100380000895FC01918D228D892F90E0805C9F4F14
:10039000821B91098F739927089587E992E00E9443
:1003A000C10121E0892B09F420E0822F089580E02B
:1003B00090E0892B29F00E94CD0181110C9400005E
:1003C0000895FC01A48DA80FB92FB11DA35ABF4FEA
:1003D0002C91848D90E001968F739927848FA68944
:1003E000B7892C93A089B1898C91837080648C9398
:1003F000938D848D981306C00288F389E02D808147
:100400008F7D80830895EF92FF920F931F93CF9378
:10041000DF93EC0181E0888F9B8D8C8D98131AC03F
:10042000E889F989808185FF15C09FB7F894EE8926
:10043000FF896083E889F989808183708064808383
:100440009FBF81E090E0DF91CF911F910F91FF90CE
:10045000EF900895F62E0B8D10E00F5F1F4F0F7376
:100460001127E02E8C8D8E110CC00FB607FCFACF31
:10047000E889F989808185FFF5CFCE010E94E101ED
:10048000F1CFEB8DEC0FFD2FF11DE35AFF4FF08202
:100490009FB7F8940B8FEA89FB8980818062CFCF68
:1004A000CF93DF93EC01888D8823B9F0AA89BB89AB
:1004B000E889F9898C9185FD03C0808186FD0DC096
:1004C0000FB607FCF7CF8C9185FFF2CF808185FFB7
:1004D000EDCFCE010E94E101E9CFDF91CF910895E8
:1004E000089520910102260F3327331F2132310551
:1004F000ECF420914A02FC0190E080E0243069F0A5
:1005000082E00895A09101022191AC014F515E4F0C
:10051000A40FB52FB11D2C930196861798F38091E7
:100520000102680F6093010280E0089581E0089560
:1005300010924A0281E0809349021092240261E005
:1005400082E10E948C0061E083E10E948C00E9EB73
:10055000F0E080818E7F808380818D7F808388E43E
:100560008093B80085E48093BC000895CF93DF9317
:1005700091E09093E0018823B9F0C091B800D09148
:10058000BA008091BC008A7B8093BC0060E082E16D
:100590000E948C0060E083E10E948C000E9498021F
:1005A000D093BA00C093B800DF91CF910895089519
:1005B000E091790280917802E81730F4F0E0E0549D
:1005C000FE4F808190E008958FEF9FEF0895909106
:1005D0007902809178022FEF3FEF981748F4E92FC6
:1005E000F0E0E054FE4F208130E09F5F909379026D
:1005F000C90108958091780290917902891B990B25
:100600000895CF92DF92EF92FF920F931F93CF93B3
:10061000DF937C01CB018A0120915002222389F0D3
:10062000EB016B01C40ED51ECC15DD0569F0699197
:10063000D701ED91FC910190F081E02DC701099562
:10064000F3CF642F0E947102C801DF91CF911F91F7
:100650000F91FF90EF90DF90CF900895CF93DF93AD
:100660001F92CDB7DEB76983209150022223F9F0A3
:1006700020917602203258F021E030E0FC013383F3
:10068000228390E080E00F90DF91CF9108958091D8
:100690007702E82FF0E0EF5AFD4F998190838F5F4A
:1006A000809377028093760281E090E0ECCF61E066
:1006B000CE0101960E947102F7CFCF92DF92EF92A6
:1006C000FF920F931F93CF93DF93FC01C48121E02E
:1006D00020935002C093710210927702109276021A
:1006E0008385682B84E393E00E942E03D0917602E9
:1006F000D13208F092C00E9409016B017C01809107
:100700004A02811165C082E080934A0281E08093B1
:1007100049028FEF8093480210924702D09346021D
:10072000A1E5B2E0E6E2F2E080E0D81385C01092E5
:10073000250280912502CC0FC82BC0932502809101
:100740002402813009F07CC0109224020E94090129
:100750006B017C01809125028093BB0080914C024B
:1007600090914D02A0914E02B0914F02892B8A2B9D
:100770008B2B99F00E94090100914C0210914D02BF
:1007800020914E0230914F026C197D098E099F090C
:100790000617170728073907E0F18091BC0083FD91
:1007A000D9CF85EC8093BC000E9409016B017C01CC
:1007B00080914A02823009F445C0809148028F3FFF
:1007C00061F180914802803241F18091480225C058
:1007D00080914C0290914D02A0914E02B0914F0237
:1007E000892B8A2B8B2B09F48ACF0E940901009157
:1007F0004C0210914D0220914E0230914F026C1923
:100800007D098E099F09061717072807390708F081
:1008100076CF80914B020E94B6021092770210921E
:10082000760210925002DF91CF911F910F91FF90AD
:10083000EF90DF90CF9008959D9191938F5F75CF4A
:1008400085EEB0CF80914C0290914D02A0914E0266
:10085000B0914F02892B8A2B8B2B09F4A9CF0E94D0
:10086000090100914C0210914D0220914E023091ED
:100870004F026C197D098E099F0906171707280773
:10088000390708F095CFC5CF90E080E00895FB01CF
:1008900001900020E9F73197AF01461B570BDC01AF
:1008A000ED91FC910280F381E02D09948F929F924B
:1008B000AF92BF920F931F93CF93DF93CDB7DEB765
:1008C000A1970FB6F894DEBF0FBECDBF19A242307C
:1008D00008F44AE08E010F5D1F4F842E912CB12C3D
:1008E000A12CA50194010E942E0BE62FB901CA018B
:1008F000EA3044F5E05DD801EE938D01232B242BE3
:10090000252B79F790E080E0109769F0FD010190C8
:100910000020E9F73197AF014A1B5B0BBD0180E472
:1009200093E00E946301A1960FB6F894DEBF0FBE5C
:10093000CDBFDF91CF911F910F91BF90AF909F904E
:100940008F900895E95CD7CF0F931F93CF938C01BD
:10095000C62F0E945D036C2F6460C8010E945D0376
:100960006C2F6B7FC8010E945D0383EC90E00197C0
:10097000F1F7CF911F910F9108950F931F93CF938C
:10098000DF938C01D62FC42F607F642B0E94A404B8
:1009900080E1D89FB00111246C2BC801DF91CF9169
:1009A0001F910F910C94A404CF93DF93CDB7DEB7C2
:1009B00028970FB6F894DEBF0FBECDBF98E0E0E0F9
:1009C000F1E0DE01119601900D929A95E1F7909178
:1009D0004803961708F46FEF262F30E0220F331FDD
:1009E00041E050E04C0F5D1F240F351FF90160817D
:1009F000680F606840E080E493E028960FB6F894B2
:100A0000DEBF0FBECDBFDF91CF910C94BD0441E09E
:100A10000E94BD0481E090E00895CF92DF92EF92B2
:100A2000FF9297FF18C06B017C0141E06DE280E40A
:100A300093E00E94BD0466277727CB016C197D09DE
:100A40008E099F094AE00E9456040196FF90EF909C
:100A5000DF90CF9008954AE0FF90EF90DF90CF9025
:100A60000C94560461E080E00E94D40468E371E0D5
:100A700080E493E00E94470461E080E00E94D40497
:100A800069E471E080E493E00E944704609184028D
:100A900070918502072E000C880B990B0E940D05A2
:100AA00060E080E00E94D4046CEB72E080E090E0B3
:100AB0000C942E01CF92DF92EF92FF920F931F932F
:100AC000CF93DF93CDB7DEB77C01CDB6DEB6FC01A8
:100AD00001900020E9F78E1B9F0B41969695879514
:100AE0002DB73EB7281B390B0FB6F8943EBF0FBE8B
:100AF0002DBF0DB71EB70F5F1F4FF80120E2AF01EA
:100B0000401B510B4817590714F42193F8CFF801F3
:100B1000E80FF91F108260E080E00E94D40468E3CF
:100B200071E080E493E00E94470460E080E00E946E
:100B3000D404B80180E493E00E944704B70180E444
:100B400093E00E94470460E080E00E94D40468EBD8
:100B50007BE080E090E00E942E010FB6F894DEBEAC
:100B60000FBECDBEDF91CF911F910F91FF90EF90FF
:100B7000DF90CF90089585ED8093BC0080914C026A
:100B800090914D02A0914E02B0914F020796A11D87
:100B9000B11D23E0B695A795979587952A95D1F72E
:100BA0002091BC0024FD03C010924A020895409198
:100BB0004C0250914D0260914E0270914F02452BB4
:100BC000462B472B69F30097A105B10541F02AE2B6
:100BD0002A95F1F700C00197A109B109E1CF8091F1
:100BE0004B020C94B602EF92FF920F931F93CF9398
:100BF000DF93182FEB017A0160E00E948C0083E004
:100C000090E00197F1F761E0812F0E948C0083E270
:100C100090E00197F1F760E0812F0E948C00FE01C7
:100C2000E656FF4F6491FE01EA57FF4FE491F0E072
:100C3000EE0FFF1FE859FF4F8591949100E412E4F5
:100C40002FE030E0462F0E940208611571058105F2
:100C5000910529F06F5F7F4F8F4F9F4F9F702AE361
:100C600030E040E050E00E94500BF70120833183D8
:100C700042835383DF91CF911F910F91FF90EF90AB
:100C800008951F920F920FB60F9211242F933F9346
:100C90008F939F93AF93BF9380918F029091900217
:100CA000A0919102B091920230918E0223E0230F25
:100CB0002D3758F50196A11DB11D20938E0280930A
:100CC0008F0290939002A0939102B0939202809130
:100CD000930290919402A0919502B0919602019690
:100CE000A11DB11D8093930290939402A09395024D
:100CF000B0939602BF91AF919F918F913F912F91A9
:100D00000F900FBE0F901F90189526E8230F0296A4
:100D1000A11DB11DD2CF1F920F920FB60F921124B9
:100D20002F933F934F935F936F937F938F939F93F3
:100D3000AF93BF93EF93FF9387E992E00E94E101A5
:100D4000FF91EF91BF91AF919F918F917F916F91A3
:100D50005F914F913F912F910F900FBE0F901F9079
:100D600018951F920F920FB60F9211242F938F9305
:100D70009F93EF93FF93E091A702F091A8028081E7
:100D8000E091AD02F091AE0282FD1BC09081809196
:100D9000B0028F5F8F732091B102821741F0E09112
:100DA000B002F0E0E956FD4F958F8093B002FF91BD
:100DB000EF919F918F912F910F900FBE0F901F90E9
:100DC00018958081F4CF1F920F920FB60F921124C5
:100DD0002F933F934F935F936F937F938F939F9343
:100DE000AF93BF93EF93FF938091B900887F8036D4
:100DF00009F44AC0F0F5883209F4A7C018F580312B
:100E000009F49BC0B8F4882309F4F9C0883009F4C8
:100E100094C0FF91EF91BF91AF919F918F917F917E
:100E20006F915F914F913F912F910F900FBE0F9057
:100E30001F901895883109F488C0803251F780934B
:100E4000480214C0803409F49DC040F48033B9F3E3
:100E50008833F9F68093480285ECB0C0803509F4F8
:100E600085C0883509F496C0883499F60E94BB0580
:100E7000D0CF883909F48CC038F5883729F050F480
:100E8000883611F0803729F683E080934A02109269
:100E9000230257C0883809F47BC0803919F08038A4
:100EA00009F0B7CF80912302803208F071C0E09141
:100EB000230281E08E0F809323028091BB00F0E03B
:100EC000ED5FFD4F80833DC0803B39F0E0F4803A18
:100ED00009F479C0883A09F09CCF84E080934A02F3
:100EE0001092020210920102E0917402F0917502D8
:100EF00009958091010281110FC081E08093010268
:100F00001092E10109C0803C09F4A6CF883C09F4A5
:100F1000A3CF883B09F07DCFE091020281E08E0FE4
:100F200080930202F0E0EF51FE4F80818093BB007E
:100F3000909102028091010229C080912502809344
:100F4000BB0085EC8093BC0064CF909147028091F8
:100F50004602981758F5E091470281E08E0F809382
:100F60004702F0E0EA5DFD4F8081E9CFE091470262
:100F700081E08E0F809347028091BB00F0E0EA5D34
:100F8000FD4F808390914702809146029817C8F2E6
:100F900085E8D8CFE091470281E08E0F8093470229
:100FA0008091BB00F0E0EA5DFD4F808380914902B3
:100FB00081115CCF81E08093240284EA8093BC009D
:100FC00010924A0226CF85EC8093BC0010924A0210
:100FD00080912302803230F4E0912302F0E0ED5F53
:100FE000FD4F10826091230270E0E0917202F09157
:100FF000730283E092E00995109223020ACF1092C7
:10100000480234CFCF92DF92EF92FF920F931F935B
:10101000E82FF92F05C0015011092109310961F1AB
:10102000908196239417B9F305C001501109210945
:10103000310911F1908196239413F7CFC12CD12C53
:10104000E12CF12C0AC08FEFC81AD80AE80AF80A76
:101050000C151D052E053F0579F080818623841728
:1010600091F36C2D7D2D8E2D9F2D1F910F91FF9053
:10107000EF90DF90CF90089560E070E080E090E026
:101080001F910F91FF90EF90DF90CF900895E7E9C7
:10109000F2E01382128288EE93E0A0E0B0E0848355
:1010A0009583A683B7832CE031E03183208325EC40
:1010B00030E03587248724EC30E03787268720EC22
:1010C00030E0318B208B21EC30E0338B228B22EC13
:1010D00030E0358B248B26EC30E0378B268B118E5D
:1010E000128E138E148EE4E3F3E013821282848353
:1010F0009583A683B7838EE191E091838083E0E4BA
:10110000F3E01382128280E391E09183808387E28F
:10111000848380E1818782E08287138608957894B2
:1011200084B5826084BD84B5816084BD85B58260EC
:1011300085BD85B5816085BD80916E00816080939D
:101140006E00109281008091810082608093810006
:101150008091810081608093810080918000816016
:10116000809380008091B10084608093B100809171
:10117000B00081608093B00080917A008460809399
:101180007A0080917A00826080937A0080917A0060
:10119000816080937A0080917A00806880937A00E1
:1011A0001092C100E091A702F091A80282E0808332
:1011B000E091A302F091A4021082E091A502F091C7
:1011C000A6028FEC80831092AF02E091AB02F09107
:1011D000AC0286E08083E091A902F091AA028081AE
:1011E00080618083E091A902F091AA0280818860E9
:1011F0008083E091A902F091AA02808180688083B7
:10120000E091A902F091AA0280818F7D808361E044
:101210008CE00E94D80060E083E00E94D80060E08B
:101220008AE00E94D80061E084E00E94D80061E07A
:1012300089E00E94D80010927902109278021092F0
:101240007702109276020E94980281E691E09093D4
:1012500075028093740282E691E09093730280930A
:1012600072021092450380914A03823018F098E090
:10127000909345038093480362E370E080E090E040
:101280000E942E0160914B0380E493E00E945D0375
:1012900068EE73E080E090E00E942E0160E380E45D
:1012A00093E00E94A404CBE4D6E4CE010197F1F7C9
:1012B00060E380E493E00E94A4042197F1F760E3E7
:1012C00080E493E00E94A40483E592E00197F1F7A3
:1012D00060E280E493E00E94A404609145036062B0
:1012E00040E080E493E00E94BD0484E080934603E4
:1012F00040E06CE080E493E00E94BD0440E061E0E7
:1013000080E493E00E94BD04CBE3DFE1CE010197CE
:10131000F1F782E08093470340E066E080E493E0E9
:101320000E94BD0440E062E080E493E00E94BD04BE
:101330002197F1F788E080934B0360E080E493E02D
:101340000E945D0360E080E00E94D40461E571E0EA
:1013500080E493E00E94470462E671E087E992E04E
:101360000E94470468EE73E080E090E00E942E0146
:10137000CBE3DFE100E010E0FF24F3944AE852E021
:1013800063E070E084E090E00E94F3056AE070E0C2
:1013900080E090E00E942E0146E852E06AE070E0B2
:1013A00089E090E00E94F3056AE070E080E090E060
:1013B0000E942E018091860290918702A09188025E
:1013C000B09189024E97A105B105A0F580918302E5
:1013D000811130C0F09283022FB7F89480918F0270
:1013E00090919002A0919102B09192022FBF8093B0
:1013F0007E0290937F02A0938002B093810280913D
:1014000082028823B9F010928302109282028091A6
:10141000840290918502853091050CF0B8C0019648
:1014200090938502809384020E94320588E691E0C1
:101430000E945A0580918A0290918B02A0918C02A1
:10144000B0918D024E97A105B105A0F58091820261
:10145000811134C0F09282022FB7F89480918F02EC
:1014600090919002A0919102B09192022FBF80932F
:101470007A0290937B02A0937C02B0937D028091CC
:1014800083028823B9F01092830210928202809125
:10149000840290918502181619060CF07BC0019702
:1014A00090938502809384020E94320582E891E045
:1014B0000E945A05809182028823F1F02FB7F89498
:1014C00080918F0290919002A0919102B09192022E
:1014D0002FBF40917A0250917B0260917C02709103
:1014E0007D02841B950BA60BB70B89359B41A1058B
:1014F000B10510F010928202809183028823F1F0EE
:101500002FB7F89480918F0290919002A091910250
:10151000B09192022FBF40917E0250917F02609164
:10152000800270918102841B950BA60BB70B893545
:101530009B41A105B10510F01092830240E061E0EB
:1015400080E493E00E94BD04CE010197F1F7809101
:10155000840290918502059701F56FE971E080E4BE
:1015600093E00E9447040E94320564E170E080E04D
:1015700090E00E942E010115110509F4FFCE0E9492
:10158000CD01882309F4FACE0E940000F7CE85E74A
:1015900091E04ECF80E991E08BCF6DEA71E080E47D
:1015A00093E00E94470460918A0270918B028091BF
:1015B0008C0290918D024AE00E94560462EB71E029
:1015C00080E493E00E94470460E08CE00E94D40431
:1015D00065EB71E080E493E00E9447046091820231
:1015E00070E090E080E00E940D0568EB71E080E41F
:1015F00093E00E94470461E080E00E94D4046AEB1B
:1016000071E080E493E00E9447046091860270914B
:10161000870280918802909189024AE00E945604D4
:1016200062EB71E080E493E00E94470461E08CE0AB
:101630000E94D40465EB71E080E493E00E944704CB
:101640006091830270E090E080E00E940D0568EBFD
:1016500071E080E493E00E94470487CFA1E21A2E54
:10166000AA1BBB1BFD010DC0AA1FBB1FEE1FFF1F46
:10167000A217B307E407F50720F0A21BB30BE40B96
:10168000F50B661F771F881F991F1A9469F76095DD
:101690007095809590959B01AC01BD01CF01089597
:1016A000052E97FB1EF400940E94670B57FD07D090
:1016B0000E942E0B07FC03D04EF40C94670B509540
:1016C0004095309521953F4F4F4F5F4F089590952E
:1016D0008095709561957F4F8F4F9F4F0895EE0FC6
:1016E000FF1F0590F491E02D0994F894FFCF0000BE
:1016F0004000140054000000000003026301900148
:101700005002C1019F01B301000000002E0301033C
:101710004404D702FA02E702D802000000000705DD
:10172000630144047002202020202020202020205B
:1017300020202020202000636F756E743A20002046
:101740002020202057656C636F6D652020202000CD
:1017500068656C6C6F004F72616E67206D617375A8
:101760006B21005275616E672050656E75682100AF
:101770004F72616E67206B656C7561722100486104
:101780006E7475206B656C756172213F00527561D6
:101790006E67616E2050656E75680053313A2000A7
:0E17A000636D00202800290053323A2000001B
:107E0000112484B714BE81FFF0D085E080938100F7
:107E100082E08093C00088E18093C10086E0809377
:107E2000C20080E18093C4008EE0C9D0259A86E02C
:107E300020E33CEF91E0309385002093840096BBD3
:107E4000B09BFECF1D9AA8958150A9F7CC24DD24C4
:107E500088248394B5E0AB2EA1E19A2EF3E0BF2EE7
:107E6000A2D0813461F49FD0082FAFD0023811F036
:107E7000013811F484E001C083E08DD089C08234E0
:107E800011F484E103C0853419F485E0A6D080C0E4
:107E9000853579F488D0E82EFF2485D0082F10E0AE
:107EA000102F00270E291F29000F111F8ED06801E7
:107EB0006FC0863521F484E090D080E0DECF843638
:107EC00009F040C070D06FD0082F6DD080E0C81688
:107ED00080E7D80618F4F601B7BEE895C0E0D1E017
:107EE00062D089930C17E1F7F0E0CF16F0E7DF06D8
:107EF00018F0F601B7BEE89568D007B600FCFDCFD4
:107F0000A601A0E0B1E02C9130E011968C91119780
:107F100090E0982F8827822B932B1296FA010C0160
:107F200087BEE89511244E5F5F4FF1E0A038BF0790
:107F300051F7F601A7BEE89507B600FCFDCF97BE46
:107F4000E89526C08437B1F42ED02DD0F82E2BD052
:107F50003CD0F601EF2C8F010F5F1F4F84911BD097
:107F6000EA94F801C1F70894C11CD11CFA94CF0C13
:107F7000D11C0EC0853739F428D08EE10CD085E9AC
:107F80000AD08FE07ACF813511F488E018D01DD067
:107F900080E101D065CF982F8091C00085FFFCCF94
:107FA0009093C60008958091C00087FFFCCF809118
:107FB000C00084FD01C0A8958091C6000895E0E648
:107FC000F0E098E1908380830895EDDF803219F02E
:107FD00088E0F5DFFFCF84E1DECF1F93182FE3DFCA
:107FE0001150E9F7F2DF1F91089580E0E8DFEE27F6
:047FF000FF270994CA
:027FFE00040479
:00000001FF
