:100000000C9462000C948A000C948A000C948A0070
:100010000C948A000C948A000C948A000C948A0038
:100020000C948A000C948A000C948A000C948A0028
:100030000C948A000C948A000C948A000C948A0018
:100040000C94C3060C948A000C9433070C940D078F
:100050000C948A000C948A000C948A000C948A00F8
:100060000C9465070C948A00000000002300260011
:10007000290000000000240027002A0000000000E2
:10008000250028002B0004040404040404040202D4
:100090000202020203030303030301020408102007
:1000A0004080010204081020010204081020000012
:1000B0000008000201000003040700000000000027
:1000C0000000C90811241FBECFEFD8E0DEBFCDBFAE
:1000D00011E0A0E0B1E0EAEDF7E102C005900D9279
:1000E000A03CB107D9F723E0A0ECB1E001C01D921C
:1000F000AD34B207E1F710E0C2E6D0E004C02197CA
:10010000FE010E94E50BC136D107C9F70E94110913
:100110000C94EB0B0C940000833081F028F48130B8
:1001200099F08230A9F008958730A9F08830C9F09D
:100130008430B1F4809180008F7D03C08091800075
:100140008F7780938000089584B58F7784BD08955C
:1001500084B58F7DFBCF8091B0008F778093B00006
:1001600008958091B0008F7DF9CF1F93CF93DF93D7
:10017000282F30E0F901E255FF4F8491F901E6564E
:10018000FF4FD491F901EA57FF4FC491CC23A9F056
:10019000162F81110E948C00EC2FF0E0EE0FFF1F54
:1001A000E458FF4FA591B4918FB7F894EC911111D9
:1001B00008C0D095DE23DC938FBFDF91CF911F91D4
:1001C0000895DE2BF8CFCF93DF9390E0FC01E65645
:1001D000FF4F24918A579F4FFC0184918823C9F0D7
:1001E00090E0880F991FFC01EE58FF4FA591B49144
:1001F000FC01E458FF4FC591D49161110DC09FB728
:10020000F8948C91209582238C93888128232883CD
:100210009FBFDF91CF910895623051F49FB7F8945A
:100220003C91822F809583238C93E8812E2BEFCFF6
:100230008FB7F894EC912E2B2C938FBFEACF3FB75A
:10024000F8948091940290919502A0919602B091B9
:10025000970226B5A89B05C02F3F19F00196A11D56
:10026000B11D3FBFBA2FA92F982F8827BC01CD0100
:10027000620F711D811D911D42E0660F771F881F5F
:10028000991F4A95D1F708958F929F92AF92BF928E
:10029000CF92DF92EF92FF926B017C010E941F01CF
:1002A0004B015C01C114D104E104F104B9F00E94D6
:1002B0001F01681979098A099B09683E7340810505
:1002C000910580F321E0C21AD108E108F10888EE17
:1002D000880E83E0981EA11CB11CE4CFFF90EF9024
:1002E000DF90CF90BF90AF909F908F90089508952A
:1002F0000895AF92BF92CF92DF92EF92FF920F9349
:100300001F93CF93DF936C017B018B01040F151FAB
:10031000EB015E01AE18BF08C017D10759F0699113
:10032000D601ED91FC910190F081E02DC601099577
:10033000892B79F7C501DF91CF911F910F91FF9024
:10034000EF90DF90CF90BF90AF900895FC01538D58
:10035000448D252F30E0842F90E0821B930B54179F
:1003600010F0CF96089501970895FC01918D828D2C
:10037000981761F0A28DAE0FBF2FB11D5D968C91C5
:10038000928D9F5F9F73928F90E008958FEF9FEF04
:100390000895FC01918D828D981731F0828DE80FC0
:1003A000F11D858D90E008958FEF9FEF0895FC017A
:1003B000918D228D892F90E0805C9F4F821B910947
:1003C0008F739927089588E992E00E94D70121E070
:1003D000892B09F420E0822F089580E090E0892B9A
:1003E00029F00E94E30181110C9400000895FC01A2
:1003F000A48DA80FB92FB11DA35ABF4F2C91848D86
:1004000090E001968F739927848FA689B7892C93E2
:10041000A089B1898C91837080648C93938D848D35
:10042000981306C00288F389E02D80818F7D808338
:100430000895EF92FF920F931F93CF93DF93EC01F8
:1004400081E0888F9B8D8C8D98131AC0E889F9897B
:10045000808185FF15C09FB7F894EE89FF8960837E
:10046000E889F98980818370806480839FBF81E0FF
:1004700090E0DF91CF911F910F91FF90EF90089541
:10048000F62E0B8D10E00F5F1F4F0F731127E02E1C
:100490008C8D8E110CC00FB607FCFACFE889F98954
:1004A000808185FFF5CFCE010E94F701F1CFEB8D62
:1004B000EC0FFD2FF11DE35AFF4FF0829FB7F89428
:1004C0000B8FEA89FB8980818062CFCFCF93DF9346
:1004D000EC01888D8823B9F0AA89BB89E889F9895C
:1004E0008C9185FD03C0808186FD0DC00FB607FC91
:1004F000F7CF8C9185FFF2CF808185FFEDCFCE01C4
:100500000E94F701E9CFDF91CF91089508952091DE
:100510000102260F3327331F21323105ECF42091DD
:100520004A02FC0190E080E0243069F082E0089506
:10053000A09101022191AC014F515E4FA40FB52F44
:10054000B11D2C930196861798F380910102680FD4
:100550006093010280E0089581E0089510924A02BC
:1005600081E0809349021092240261E082E10E94BE
:10057000B50061E083E10E94B500E9EBF0E0808125
:100580008E7F808380818D7F808388E48093B80014
:1005900085E48093BC000895CF93DF9391E090931E
:1005A000E0018823B9F0C091B800D091BA008091E1
:1005B000BC008A7B8093BC0060E082E10E94B500B1
:1005C00060E083E10E94B5000E94AE02D093BA00C1
:1005D000C093B800DF91CF9108950895E09179021A
:1005E00080917802E81730F4F0E0E054FE4F80810B
:1005F00090E008958FEF9FEF089590917902809198
:1006000078022FEF3FEF981748F4E92FF0E0E0541D
:10061000FE4F208130E09F5F90937902C9010895D9
:100620008091780290917902891B990B0895CF925D
:10063000DF92EF92FF920F931F93CF93DF937C0192
:10064000CB018A0120915002222389F0EB016B013A
:10065000C40ED51ECC15DD0569F06991D701ED9169
:10066000FC910190F081E02DC7010995F3CF642F33
:100670000E948702C801DF91CF911F910F91FF90D7
:10068000EF90DF90CF900895CF93DF931F92CDB777
:10069000DEB76983209150022223F9F0209176027F
:1006A000203258F021E030E0FC013383228390E0D7
:1006B00080E00F90DF91CF91089580917702E82F2D
:1006C000F0E0EF5AFD4F998190838F5F809377021E
:1006D0008093760281E090E0ECCF61E0CE0101965C
:1006E0000E948702F7CFCF92DF92EF92FF920F9393
:1006F0001F93CF93DF93FC01C48121E0209350022C
:10070000C093710210927702109276028385682B53
:1007100085E393E00E944403D0917602D13208F041
:1007200092C00E941F016B017C0180914A028111DD
:1007300065C082E080934A0281E0809349028FEF96
:100740008093480210924702D0934602A1E5B2E09E
:10075000E6E2F2E080E0D81385C010922502809195
:100760002502CC0FC82BC093250280912402813032
:1007700009F07CC0109224020E941F016B017C01D1
:10078000809125028093BB0080914C0290914D0294
:10079000A0914E02B0914F02892B8A2B8B2B99F09E
:1007A0000E941F0100914C0210914D0220914E02B7
:1007B00030914F026C197D098E099F0906171707A2
:1007C00028073907E0F18091BC0083FDD9CF85EC83
:1007D0008093BC000E941F016B017C0180914A0242
:1007E000823009F445C0809148028F3F61F18091C9
:1007F0004802803241F18091480225C080914C022C
:1008000090914D02A0914E02B0914F02892B8A2BFC
:100810008B2B09F48ACF0E941F0100914C0210918A
:100820004D0220914E0230914F026C197D098E09C4
:100830009F09061717072807390708F076CF809118
:100840004B020E94CC021092770210927602109214
:100850005002DF91CF911F910F91FF90EF90DF90A9
:10086000CF9008959D9191938F5F75CF85EEB0CF16
:1008700080914C0290914D02A0914E02B0914F0296
:10088000892B8A2B8B2B09F4A9CF0E941F01009181
:100890004C0210914D0220914E0230914F026C1982
:1008A0007D098E099F09061717072807390708F0E1
:1008B00095CFC5CF90E080E00895FB010190002026
:1008C000E9F73197AF01461B570BDC01ED91FC9125
:1008D0000280F381E02D09948F929F92AF92BF9294
:1008E0000F931F93CF93DF93CDB7DEB7A1970FB6CA
:1008F000F894DEBF0FBECDBF19A2423008F44AE023
:100900008E010F5D1F4F842E912CB12CA12CA501BF
:1009100094010E94A40BE62FB901CA01EA3044F504
:10092000E05DD801EE938D01232B242B252B79F745
:1009300090E080E0109769F0FD0101900020E9F758
:100940003197AF014A1B5B0BBD0181E493E00E942C
:100950007901A1960FB6F894DEBF0FBECDBFDF912F
:10096000CF911F910F91BF90AF909F908F9008955E
:10097000E95CD7CF0F931F93CF938C01C62F0E94B2
:1009800073036C2F6460C8010E9473036C2F6B7F2C
:10099000C8010E94730383EC90E00197F1F7CF91B7
:1009A0001F910F9108950F931F93CF93DF938C01A5
:1009B000D62FC42F607F642B0E94BA0480E1D89F99
:1009C000B00111246C2BC801DF91CF911F910F91C1
:1009D0000C94BA04CF93DF93CDB7DEB728970FB648
:1009E000F894DEBF0FBECDBF98E0E0E0F1E0DE019D
:1009F000119601900D929A95E1F7909149039617FF
:100A000008F46FEF262F30E0220F331F41E050E053
:100A10004C0F5D1F240F351FF9016081680F60685E
:100A200040E081E493E028960FB6F894DEBF0FBE55
:100A3000CDBFDF91CF910C94D30441E00E94D30449
:100A400081E090E00895CF92DF92EF92FF9297FFBE
:100A500018C06B017C0141E06DE281E493E00E94EB
:100A6000D30466277727CB016C197D098E099F096E
:100A70004AE00E946C040196FF90EF90DF90CF90C7
:100A800008954AE0FF90EF90DF90CF900C946C04B3
:100A900061E080E00E94EA0468E371E081E493E0B1
:100AA0000E945D0461E084E00E94EA0469E471E070
:100AB00081E493E00E945D0460918502709186025A
:100AC000072E000C880B990B0E94230560E080E044
:100AD0000E94EA0461E070E080E090E00C94440140
:100AE000CF93DF93823028F09091460398609093E3
:100AF00046038093490362E370E080E090E00E9447
:100B0000440160914C0381E493E00E94730368EE1A
:100B100073E080E090E00E94440160E381E493E0B0
:100B20000E94BA04CBE4D6E4CE010197F1F760E36A
:100B300081E493E00E94BA042197F1F760E381E435
:100B400093E00E94BA0483E592E00197F1F760E236
:100B500081E493E00E94BA0460914603606240E041
:100B600081E493E00E94D30484E08093470340E053
:100B70006CE081E493E00E94D30440E061E081E412
:100B800093E00E94D304CBE3DFE1CE010197F1F7BC
:100B900082E08093480340E066E081E493E00E94B5
:100BA000D30440E062E081E493E00E94D304219703
:100BB000F1F7DF91CF910895CF92DF92EF92FF92FC
:100BC0000F931F93CF93DF93CDB7DEB77C01CDB6E4
:100BD000DEB6FC0101900020E9F78E1B9F0B4196C9
:100BE000969587952DB73EB7281B390B0FB6F8940D
:100BF0003EBF0FBE2DBF0DB71EB70F5F1F4FF801D1
:100C000020E2AF01401B510B4817590714F4219300
:100C1000F8CFF801E80FF91F108260E080E00E9431
:100C2000EA0468E371E081E493E00E945D0460E01F
:100C300080E00E94EA04B80181E493E00E945D0430
:100C4000B70181E493E00E945D0460E080E00E94CF
:100C5000EA0468EE73E080E090E00E9444010FB681
:100C6000F894DEBE0FBECDBEDF91CF911F910F91E4
:100C7000FF90EF90DF90CF90089585ED8093BC00BA
:100C800080914C0290914D02A0914E02B0914F0282
:100C90000796A11DB11D23E0B695A7959795879559
:100CA0002A95D1F72091BC0024FD03C010924A027E
:100CB000089540914C0250914D0260914E02709106
:100CC0004F02452B462B472B69F30097A105B10531
:100CD00041F02AE22A95F1F700C00197A109B10974
:100CE000E1CF80914B020C94CC02EF92FF920F93D4
:100CF0001F93CF93DF93182FEB017A0160E00E94DE
:100D0000B50083E090E00197F1F761E0812F0E9448
:100D1000B50083E290E00197F1F760E0812F0E9437
:100D2000B500FE01E656FF4F6491FE01EA57FF4F02
:100D3000E491F0E0EE0FFF1FE859FF4F8591949189
:100D400000E412E42FE030E0462F0E948408611591
:100D500071058105910529F06F5F7F4F8F4F9F4F80
:100D60009F702AE330E040E050E00E94C60BF7019C
:100D70002083318342835383DF91CF911F910F9161
:100D8000FF90EF9008951F920F920FB60F921124CB
:100D90002F933F938F939F93AF93BF938091900234
:100DA00090919102A0919202B091930230918F02A2
:100DB00023E0230F2D3758F50196A11DB11D209377
:100DC0008F028093900290939102A0939202B0932D
:100DD00093028091940290919502A0919602B09115
:100DE00097020196A11DB11D8093940290939502E4
:100DF000A0939602B0939702BF91AF919F918F916C
:100E00003F912F910F900FBE0F901F90189526E8DD
:100E1000230F0296A11DB11DD2CF1F920F920FB6C4
:100E20000F9211242F933F934F935F936F937F9370
:100E30008F939F93AF93BF93EF93FF9388E992E0D3
:100E40000E94F701FF91EF91BF91AF919F918F9118
:100E50007F916F915F914F913F912F910F900FBEB6
:100E60000F901F9018951F920F920FB60F9211249A
:100E70002F938F939F93EF93FF93E091A802F091AC
:100E8000A9028081E091AE02F091AF0282FD1BC009
:100E900090818091B1028F5F8F732091B20282178F
:100EA00041F0E091B102F0E0E856FD4F958F80935C
:100EB000B102FF91EF919F918F912F910F900FBEF3
:100EC0000F901F9018958081F4CF1F920F920FB64C
:100ED0000F9211242F933F934F935F936F937F93C0
:100EE0008F939F93AF93BF93EF93FF938091B9003C
:100EF000887F803609F44AC0F0F5883209F4A7C02B
:100F000018F5803109F49BC0B8F4882309F4F9C0BE
:100F1000883009F494C0FF91EF91BF91AF919F91F8
:100F20008F917F916F915F914F913F912F910F9092
:100F30000FBE0F901F901895883109F488C0803239
:100F400051F78093480214C0803409F49DC040F4E6
:100F50008033B9F38833F9F68093480285ECB0C04A
:100F6000803509F485C0883509F496C0883499F62F
:100F70000E943D06D0CF883909F48CC038F58837F7
:100F800029F050F4883611F0803729F683E08093F9
:100F90004A021092230257C0883809F47BC0803976
:100FA00019F0803809F0B7CF80912302803208F021
:100FB00071C0E091230281E08E0F80932302809123
:100FC000BB00F0E0ED5FFD4F80833DC0803B39F01A
:100FD000E0F4803A09F479C0883A09F09CCF84E0C3
:100FE00080934A021092020210920102E091740270
:100FF000F091750209958091010281110FC081E085
:10100000809301021092E10109C0803C09F4A6CF4F
:10101000883C09F4A3CF883B09F07DCFE091020220
:1010200081E08E0F80930202F0E0EF51FE4F80814D
:101030008093BB00909102028091010229C08091AF
:1010400025028093BB0085EC8093BC0064CF909117
:10105000470280914602981758F5E091470281E0D7
:101060008E0F80934702F0E0EA5DFD4F8081E9CF6B
:10107000E091470281E08E0F809347028091BB0090
:10108000F0E0EA5DFD4F8083909147028091460237
:101090009817C8F285E8D8CFE091470281E08E0F1B
:1010A000809347028091BB00F0E0EA5DFD4F8083B2
:1010B0008091490281115CCF81E08093240284EA0F
:1010C0008093BC0010924A0226CF85EC8093BC002E
:1010D00010924A0280912302803230F4E091230280
:1010E000F0E0ED5FFD4F10826091230270E0E0912F
:1010F0007202F091730283E092E00995109223024C
:101100000ACF1092480234CFCF92DF92EF92FF9233
:101110000F931F93E82FF92F05C0015011092109E2
:10112000310961F1908196239417B9F305C00150FC
:1011300011092109310911F1908196239413F7CFF8
:10114000C12CD12CE12CF12C0AC08FEFC81AD80A7F
:10115000E80AF80A0C151D052E053F0579F0808177
:101160008623841791F36C2D7D2D8E2D9F2D1F913D
:101170000F91FF90EF90DF90CF90089560E070E0C6
:1011800080E090E01F910F91FF90EF90DF90CF9063
:101190000895E8E9F2E01382128288EE93E0A0E07D
:1011A000B0E084839583A683B7832CE031E031835C
:1011B000208325EC30E03587248724EC30E0378726
:1011C000268720EC30E0318B208B21EC30E0338B14
:1011D000228B22EC30E0358B248B26EC30E0378BF1
:1011E000268B118E128E138E148EE5E3F3E013829C
:1011F000128284839583A683B7838EE191E09183E5
:101200008083E1E4F3E01382128280E391E0918332
:10121000808387E2848380E1818782E082871386EE
:101220000895789484B5826084BD84B5816084BD5E
:1012300085B5826085BD85B5816085BD80916E0074
:10124000816080936E0010928100809181008260A5
:1012500080938100809181008160809381008091E2
:1012600080008160809380008091B10084608093D1
:10127000B1008091B00081608093B00080917A00CD
:10128000846080937A0080917A00826080937A00F3
:1012900080917A00816080937A0080917A008068E2
:1012A00080937A001092C100E091A802F091A90207
:1012B00082E08083E091A402F091A5021082E09187
:1012C000A602F091A7028FEC80831092B002E09109
:1012D000AC02F091AD0286E08083E091AA02F09129
:1012E000AB02808180618083E091AA02F091AB0221
:1012F000808188608083E091AA02F091AB028081B6
:1013000080688083E091AA02F091AB0280818F7D9A
:10131000808362E086E00E94E30061E08CE00E944E
:10132000E30060E083E00E94E30060E08AE00E9466
:10133000E30061E084E00E94E30061E089E00E9454
:10134000E3001092790210927802109277021092C4
:1013500076020E94AE0287E791E090937502809337
:10136000740288E791E09093730280937202109266
:10137000460380914B030E94700582E00E94700535
:1013800088E080934C0360E081E493E00E94730363
:1013900060E080E00E94EA0461E571E081E493E0AE
:1013A0000E945D0462E671E088E992E00E945D04BB
:1013B00068EE73E080E090E00E94440104EB10E0EE
:1013C00090EAE92E90E0F92E2CE8C22E20E0D22EF1
:1013D0003BE3A32E3FE1B32E40E0842E40E0942E69
:1013E00058E0652E77247394F8018491F701C49135
:1013F000F601D491D11122C182E00E947005609261
:101400004C0360E081E493E00E9473034BE852E0F8
:1014100063E070E084E090E00E9475066AE070E0AE
:1014200080E090E00E94440147E852E06AE070E00A
:1014300089E090E00E9475066AE070E080E090E04C
:101440000E9444018091870290918802A0918902B4
:10145000B0918A024E97A105B105A0F58091840252
:10146000811130C0709284022FB7F894809190025D
:1014700090919102A0919202B09193022FBF80931C
:101480007E0290937F02A0938002B09381028091AC
:1014900083028823B9F01092840210928302809113
:1014A000850290918602853091050CF0D7C0019697
:1014B00090938602809385020E94480588E691E019
:1014C0000E94DC0580918B0290918C02A0918D028C
:1014D000B0918E024E97A105B105A0F580918302CF
:1014E000811134C0709283022FB7F89480919002DA
:1014F00090919102A0919202B09193022FBF80939C
:101500007A0290937B02A0937C02B0937D0280913B
:1015100084028823B9F01092840210928302809191
:10152000850290918602181619060CF09AC0019750
:1015300090938602809385020E94480582E891E09C
:101540000E94DC05809183028823F1F02FB7F89484
:101550008091900290919102A0919202B091930299
:101560002FBF40917A0250917B0260917C02709172
:101570007D02841B950BA60BB70B89359B41A105FA
:10158000B10510F010928302809184028823F1F05B
:101590002FB7F8948091900290919102A0919202BD
:1015A000B09193022FBF40917E0250917F026091D3
:1015B000800270918102841B950BA60BB70B8935B5
:1015C0009B41A105B10510F010928402C0918502E3
:1015D000D09186021C161D060CF046C08091820236
:1015E000811106C061E08CE00E94B5007092820219
:1015F00040E061E081E493E00E94D304C5010197DB
:10160000F1F7259709F03FC06FE971E081E493E0BD
:101610000E945D040E94480564E670E080E090E06E
:101620000E9444018114910409F4DECE0E94E3017A
:10163000882309F4D9CE0E940000D6CE81110E94E1
:101640008C00ED2FF0E0EE0FFF1FE859FF4FA59142
:10165000B4918C91C82309F4CFCED8CE85E791E020
:101660002FCF80E991E06CCF209709F0C1CF809116
:101670008202882309F4BCCF60E08CE00E94B500B0
:1016800010928202B5CF6DEA71E081E493E00E948E
:101690005D0460918B0270918C0280918D0290911B
:1016A0008E024AE00E946C0462EB71E081E493E0F8
:1016B0000E945D0460E08CE00E94EA0465EB71E04A
:1016C00081E493E00E945D046091830270E090E009
:1016D00080E00E94230568EB71E081E493E00E94C2
:1016E0005D0461E080E00E94EA046AEB71E081E45D
:1016F00093E00E945D04609187027091880280915E
:10170000890290918A024AE00E946C0462EB71E0C7
:1017100081E493E00E945D0461E08CE00E94EA04B1
:1017200065EB71E081E493E00E945D0460918402C6
:1017300070E090E080E00E94230568EB71E081E4B6
:1017400093E00E945D0468CFA1E21A2EAA1BBB1B86
:10175000FD010DC0AA1FBB1FEE1FFF1FA217B3077D
:10176000E407F50720F0A21BB30BE40BF50B661F93
:10177000771F881F991F1A9469F760957095809557
:1017800090959B01AC01BD01CF010895052E97FBFB
:101790001EF400940E94DD0B57FD07D00E94A40B9D
:1017A00007FC03D04EF40C94DD0B5095409530951A
:1017B00021953F4F4F4F5F4F0895909580957095BD
:1017C00061957F4F8F4F9F4F0895EE0FFF1F05903C
:0A17D000F491E02D0994F894FFCF86
:1017DA0000004000140054000000000019027901C2
:1017EA00A6016602D701B501C90100000000440341
:1017FA0017035A04ED021003FD02EE020000000076
:10180A001D0579015A04860220202020202020204C
:10181A00202020202020202000636F756E743A203B
:10182A0000202020202057656C636F6D65202020E2
:10183A00200068656C6C6F004F72616E67206D6185
:10184A0073756B21005275616E672050656E7568FD
:10185A0021004F72616E67206B656C7561722100A1
:10186A0048616E7475206B656C756172213F005218
:10187A0075616E67616E2050656E75680053313A06
:10188A002000636D00202800290053323A2000000E
:00000001FF
